{
  "contractName": "SmartContract3",
  "abi": [
    {
      "inputs": [
        {
          "internalType": "uint256",
          "name": "",
          "type": "uint256"
        }
      ],
      "name": "arr",
      "outputs": [
        {
          "internalType": "uint256",
          "name": "",
          "type": "uint256"
        }
      ],
      "stateMutability": "view",
      "type": "function"
    },
    {
      "inputs": [
        {
          "internalType": "uint256",
          "name": "num",
          "type": "uint256"
        }
      ],
      "name": "insert",
      "outputs": [],
      "stateMutability": "nonpayable",
      "type": "function"
    },
    {
      "inputs": [],
      "name": "length",
      "outputs": [
        {
          "internalType": "uint256",
          "name": "",
          "type": "uint256"
        }
      ],
      "stateMutability": "view",
      "type": "function"
    }
  ],
  "bytecode": "0x608060405234801561001057600080fd5b506101d4806100206000396000f3fe608060405234801561001057600080fd5b50600436106100415760003560e01c80631f7b6d321461004657806371e5ee5f1461006457806390b5561d14610094575b600080fd5b61004e6100b0565b60405161005b9190610125565b60405180910390f35b61007e60048036038101906100799190610171565b6100bc565b60405161008b9190610125565b60405180910390f35b6100ae60048036038101906100a99190610171565b6100e0565b005b60008080549050905090565b600081815481106100cc57600080fd5b906000526020600020016000915090505481565b600081908060018154018082558091505060019003906000526020600020016000909190919091505550565b6000819050919050565b61011f8161010c565b82525050565b600060208201905061013a6000830184610116565b92915050565b600080fd5b61014e8161010c565b811461015957600080fd5b50565b60008135905061016b81610145565b92915050565b60006020828403121561018757610186610140565b5b60006101958482850161015c565b9150509291505056fea2646970667358221220edb57720b311a4af79a4b541e35014ad5e2d8e84306e58ea36b991f9b84fa66964736f6c63430008110033",
  "immutableReferences": {},
  "source": "// SPDX-License-Identifier: GPL-3.0\n\npragma solidity >=0.7.0 <0.9.0;\n\ncontract SmartContract3{\n\n    uint256[] public arr;\n\n    function insert(uint256 num) public{\n        arr.push(num);\n    }\n    function length() public view returns(uint256){\n        return arr.length;\n    }\n}",
  "sourcePath": "/Users/adityaraj/Desktop/Testing of SC/contracts/SmartContract3.sol",
  "compiler": {
    "name": "solc",
    "version": "0.8.17+commit.8df45f5f.Emscripten.clang"
  },
  "schemaVersion": "3.4.11",
  "updatedAt": "2023-02-19T14:05:52.428Z",
  "devdoc": {
    "kind": "dev",
    "methods": {},
    "version": 1
  },
  "userdoc": {
    "kind": "user",
    "methods": {},
    "version": 1
  }
}