{
  "contractName": "SmartContract4",
  "abi": [
    {
      "inputs": [
        {
          "internalType": "uint256",
          "name": "",
          "type": "uint256"
        }
      ],
      "name": "arr",
      "outputs": [
        {
          "internalType": "uint256",
          "name": "",
          "type": "uint256"
        }
      ],
      "stateMutability": "view",
      "type": "function"
    },
    {
      "inputs": [
        {
          "internalType": "uint256",
          "name": "num",
          "type": "uint256"
        }
      ],
      "name": "insert",
      "outputs": [],
      "stateMutability": "nonpayable",
      "type": "function"
    },
    {
      "inputs": [],
      "name": "length",
      "outputs": [
        {
          "internalType": "uint256",
          "name": "",
          "type": "uint256"
        }
      ],
      "stateMutability": "view",
      "type": "function"
    },
    {
      "inputs": [],
      "name": "getAll",
      "outputs": [
        {
          "internalType": "uint256[]",
          "name": "",
          "type": "uint256[]"
        }
      ],
      "stateMutability": "view",
      "type": "function"
    }
  ],
  "bytecode": "0x608060405234801561001057600080fd5b50610335806100206000396000f3fe608060405234801561001057600080fd5b506004361061004c5760003560e01c80631f7b6d321461005157806353ed51431461006f57806371e5ee5f1461008d57806390b5561d146100bd575b600080fd5b6100596100d9565b60405161006691906101a6565b60405180910390f35b6100776100e5565b604051610084919061027f565b60405180910390f35b6100a760048036038101906100a291906102d2565b61013d565b6040516100b491906101a6565b60405180910390f35b6100d760048036038101906100d291906102d2565b610161565b005b60008080549050905090565b6060600080548060200260200160405190810160405280929190818152602001828054801561013357602002820191906000526020600020905b81548152602001906001019080831161011f575b5050505050905090565b6000818154811061014d57600080fd5b906000526020600020016000915090505481565b600081908060018154018082558091505060019003906000526020600020016000909190919091505550565b6000819050919050565b6101a08161018d565b82525050565b60006020820190506101bb6000830184610197565b92915050565b600081519050919050565b600082825260208201905092915050565b6000819050602082019050919050565b6101f68161018d565b82525050565b600061020883836101ed565b60208301905092915050565b6000602082019050919050565b600061022c826101c1565b61023681856101cc565b9350610241836101dd565b8060005b8381101561027257815161025988826101fc565b975061026483610214565b925050600181019050610245565b5085935050505092915050565b600060208201905081810360008301526102998184610221565b905092915050565b600080fd5b6102af8161018d565b81146102ba57600080fd5b50565b6000813590506102cc816102a6565b92915050565b6000602082840312156102e8576102e76102a1565b5b60006102f6848285016102bd565b9150509291505056fea2646970667358221220059e279b007616d1615c73e92a07f3290bc6c11293352dfb579e5e46f2315db964736f6c63430008110033",
  "immutableReferences": {},
  "source": "// SPDX-License-Identifier: GPL-3.0\n\npragma solidity >=0.7.0 <0.9.0;\n\ncontract SmartContract4{\n\n    uint256[] public arr;\n\n    function insert(uint256 num) public{\n        arr.push(num);\n    }\n    function length() public view returns(uint256){\n        return arr.length;\n    }\n    function getAll() public view returns(uint256[] memory){\n        return arr;\n    }\n}",
  "sourcePath": "/Users/adityaraj/Desktop/Testing of SC/contracts/SmartContract4.sol",
  "compiler": {
    "name": "solc",
    "version": "0.8.17+commit.8df45f5f.Emscripten.clang"
  },
  "schemaVersion": "3.4.11",
  "updatedAt": "2023-02-19T14:05:52.428Z",
  "devdoc": {
    "kind": "dev",
    "methods": {},
    "version": 1
  },
  "userdoc": {
    "kind": "user",
    "methods": {},
    "version": 1
  }
}