{
  "contractName": "SmartContract9",
  "abi": [
    {
      "inputs": [
        {
          "internalType": "uint256",
          "name": "_amount",
          "type": "uint256"
        },
        {
          "internalType": "uint256",
          "name": "_interest",
          "type": "uint256"
        },
        {
          "internalType": "uint256",
          "name": "_duration",
          "type": "uint256"
        },
        {
          "internalType": "address payable",
          "name": "_borrower",
          "type": "address"
        },
        {
          "internalType": "address payable",
          "name": "_lender",
          "type": "address"
        }
      ],
      "stateMutability": "nonpayable",
      "type": "constructor"
    },
    {
      "inputs": [],
      "name": "amount",
      "outputs": [
        {
          "internalType": "uint256",
          "name": "",
          "type": "uint256"
        }
      ],
      "stateMutability": "view",
      "type": "function"
    },
    {
      "inputs": [],
      "name": "borrower",
      "outputs": [
        {
          "internalType": "address payable",
          "name": "",
          "type": "address"
        }
      ],
      "stateMutability": "view",
      "type": "function"
    },
    {
      "inputs": [],
      "name": "duration",
      "outputs": [
        {
          "internalType": "uint256",
          "name": "",
          "type": "uint256"
        }
      ],
      "stateMutability": "view",
      "type": "function"
    },
    {
      "inputs": [],
      "name": "end",
      "outputs": [
        {
          "internalType": "uint256",
          "name": "",
          "type": "uint256"
        }
      ],
      "stateMutability": "view",
      "type": "function"
    },
    {
      "inputs": [],
      "name": "interest",
      "outputs": [
        {
          "internalType": "uint256",
          "name": "",
          "type": "uint256"
        }
      ],
      "stateMutability": "view",
      "type": "function"
    },
    {
      "inputs": [],
      "name": "lender",
      "outputs": [
        {
          "internalType": "address payable",
          "name": "",
          "type": "address"
        }
      ],
      "stateMutability": "view",
      "type": "function"
    },
    {
      "inputs": [],
      "name": "state",
      "outputs": [
        {
          "internalType": "enum SmartContract9.State",
          "name": "",
          "type": "uint8"
        }
      ],
      "stateMutability": "view",
      "type": "function"
    },
    {
      "inputs": [],
      "name": "lend",
      "outputs": [],
      "stateMutability": "payable",
      "type": "function"
    },
    {
      "inputs": [],
      "name": "payBack",
      "outputs": [],
      "stateMutability": "payable",
      "type": "function"
    }
  ],
  "bytecode": "0x608060405260008060006101000a81548160ff021916908360028111156200002c576200002b62000106565b5b02179055503480156200003e57600080fd5b5060405162000acb38038062000acb8339818101604052810190620000649190620001da565b84600181905550836002819055508260048190555081600560006101000a81548173ffffffffffffffffffffffffffffffffffffffff021916908373ffffffffffffffffffffffffffffffffffffffff16021790555080600660006101000a81548173ffffffffffffffffffffffffffffffffffffffff021916908373ffffffffffffffffffffffffffffffffffffffff160217905550505050505062000262565b7f4e487b7100000000000000000000000000000000000000000000000000000000600052602160045260246000fd5b600080fd5b6000819050919050565b6200014f816200013a565b81146200015b57600080fd5b50565b6000815190506200016f8162000144565b92915050565b600073ffffffffffffffffffffffffffffffffffffffff82169050919050565b6000620001a28262000175565b9050919050565b620001b48162000195565b8114620001c057600080fd5b50565b600081519050620001d481620001a9565b92915050565b600080600080600060a08688031215620001f957620001f862000135565b5b600062000209888289016200015e565b95505060206200021c888289016200015e565b94505060406200022f888289016200015e565b93505060606200024288828901620001c3565b92505060806200025588828901620001c3565b9150509295509295909350565b61085980620002726000396000f3fe6080604052600436106100865760003560e01c8063aa8c217c11610059578063aa8c217c146100f5578063bcead63e14610120578063c19d93fb1461014b578063c392f76614610176578063efbe1c1c146101a157610086565b8063019f64cc1461008b5780630fb5a6b4146100955780637df1f1b9146100c057806397dffc61146100eb575b600080fd5b6100936101cc565b005b3480156100a157600080fd5b506100aa610327565b6040516100b791906104f6565b60405180910390f35b3480156100cc57600080fd5b506100d561032d565b6040516100e29190610552565b60405180910390f35b6100f3610353565b005b34801561010157600080fd5b5061010a610494565b60405161011791906104f6565b60405180910390f35b34801561012c57600080fd5b5061013561049a565b6040516101429190610552565b60405180910390f35b34801561015757600080fd5b506101606104c0565b60405161016d91906105e4565b60405180910390f35b34801561018257600080fd5b5061018b6104d1565b60405161019891906104f6565b60405180910390f35b3480156101ad57600080fd5b506101b66104d7565b6040516101c391906104f6565b60405180910390f35b600560009054906101000a900473ffffffffffffffffffffffffffffffffffffffff1673ffffffffffffffffffffffffffffffffffffffff163373ffffffffffffffffffffffffffffffffffffffff161461025c576040517f08c379a00000000000000000000000000000000000000000000000000000000081526004016102539061065c565b60405180910390fd5b60025460015461026c91906106ab565b34146102ad576040517f08c379a00000000000000000000000000000000000000000000000000000000081526004016102a49061072b565b60405180910390fd5b600660009054906101000a900473ffffffffffffffffffffffffffffffffffffffff1673ffffffffffffffffffffffffffffffffffffffff166108fc6002546001546102f991906106ab565b9081150290604051600060405180830381858888f19350505050158015610324573d6000803e3d6000fd5b50565b60045481565b600560009054906101000a900473ffffffffffffffffffffffffffffffffffffffff1681565b600660009054906101000a900473ffffffffffffffffffffffffffffffffffffffff1673ffffffffffffffffffffffffffffffffffffffff163373ffffffffffffffffffffffffffffffffffffffff16146103e3576040517f08c379a00000000000000000000000000000000000000000000000000000000081526004016103da90610797565b60405180910390fd5b6001543414610427576040517f08c379a000000000000000000000000000000000000000000000000000000000815260040161041e90610803565b60405180910390fd5b600560009054906101000a900473ffffffffffffffffffffffffffffffffffffffff1673ffffffffffffffffffffffffffffffffffffffff166108fc6001549081150290604051600060405180830381858888f19350505050158015610491573d6000803e3d6000fd5b50565b60015481565b600660009054906101000a900473ffffffffffffffffffffffffffffffffffffffff1681565b60008054906101000a900460ff1681565b60025481565b60035481565b6000819050919050565b6104f0816104dd565b82525050565b600060208201905061050b60008301846104e7565b92915050565b600073ffffffffffffffffffffffffffffffffffffffff82169050919050565b600061053c82610511565b9050919050565b61054c81610531565b82525050565b60006020820190506105676000830184610543565b92915050565b7f4e487b7100000000000000000000000000000000000000000000000000000000600052602160045260246000fd5b600381106105ad576105ac61056d565b5b50565b60008190506105be8261059c565b919050565b60006105ce826105b0565b9050919050565b6105de816105c3565b82525050565b60006020820190506105f960008301846105d5565b92915050565b600082825260208201905092915050565b7f4f6e6c7920626f72726f7765722063616e20706179206261636b000000000000600082015250565b6000610646601a836105ff565b915061065182610610565b602082019050919050565b6000602082019050818103600083015261067581610639565b9050919050565b7f4e487b7100000000000000000000000000000000000000000000000000000000600052601160045260246000fd5b60006106b6826104dd565b91506106c1836104dd565b92508282019050808211156106d9576106d861067c565b5b92915050565b7f506c656173652072657475726e2074686520657861637420616d6f756e740000600082015250565b6000610715601e836105ff565b9150610720826106df565b602082019050919050565b6000602082019050818103600083015261074481610708565b9050919050565b7f4f6e6c79206c656e6465722063616e206c656e64000000000000000000000000600082015250565b60006107816014836105ff565b915061078c8261074b565b602082019050919050565b600060208201905081810360008301526107b081610774565b9050919050565b7f506c65617365206c656e642074686520657861637420616d6f756e7400000000600082015250565b60006107ed601c836105ff565b91506107f8826107b7565b602082019050919050565b6000602082019050818103600083015261081c816107e0565b905091905056fea2646970667358221220551158f49f4fe83277566e897938f80237a147f68d696f1e0bc854c9a603761864736f6c63430008110033",
  "immutableReferences": {},
  "source": "// SPDX-License-Identifier: GPL-3.0\n\npragma solidity >=0.7.0 <0.9.0;\n\ncontract SmartContract9 {\n    enum State {\n        PENDING,\n        ACTIVE,\n        CLOSED\n    }\n    State public state = State.PENDING;\n    uint256 public amount;\n    uint256 public interest;\n    uint256 public end;\n    uint256 public duration;\n    address payable public borrower;\n    address payable public lender;\n\n    constructor(\n        uint256 _amount,\n        uint256 _interest,\n        uint256 _duration,\n        address payable _borrower,\n        address payable _lender\n    ) {\n        amount = _amount;\n        interest = _interest;\n        duration = _duration;\n        borrower = _borrower;\n        lender = _lender;\n    }\n\n    function lend() public payable {\n        require(msg.sender == lender, \"Only lender can lend\");\n        require(msg.value == amount, \"Please lend the exact amount\");\n\n        borrower.transfer(amount);\n    }\n\n    function payBack() public payable {\n        require(msg.sender == borrower, \"Only borrower can pay back\");\n        require(\n            msg.value == amount + interest,\n            \"Please return the exact amount\"\n        );\n        lender.transfer(amount + interest);\n    }\n\n    function changeState(State to) internal {\n        require(to != State.PENDING, \"state is already a pending state\");\n        require(to != state, \"Transition state can not be same\");\n\n        if (to == State.ACTIVE) {\n            require(state == State.PENDING, \"state is not pending\");\n            state = State.ACTIVE;\n            end = block.timestamp + duration;\n        }\n        if (to == State.CLOSED) {\n            require(state == State.ACTIVE, \"state is not active\");\n            require(block.timestamp >= end, \"Date has not matured yet\");\n            state = State.CLOSED;\n        }\n    }\n}\n",
  "sourcePath": "/Users/adityaraj/Desktop/untitled folder/contracts/SmartContract9.sol",
  "compiler": {
    "name": "solc",
    "version": "0.8.17+commit.8df45f5f.Emscripten.clang"
  },
  "schemaVersion": "3.4.11",
  "updatedAt": "2023-02-20T02:05:02.367Z",
  "devdoc": {
    "kind": "dev",
    "methods": {},
    "version": 1
  },
  "userdoc": {
    "kind": "user",
    "methods": {},
    "version": 1
  }
}