{
  "contractName": "SmartContract8",
  "abi": [
    {
      "inputs": [
        {
          "internalType": "address",
          "name": "_owner",
          "type": "address"
        }
      ],
      "stateMutability": "nonpayable",
      "type": "constructor"
    },
    {
      "inputs": [],
      "name": "owner",
      "outputs": [
        {
          "internalType": "address",
          "name": "",
          "type": "address"
        }
      ],
      "stateMutability": "view",
      "type": "function"
    },
    {
      "inputs": [
        {
          "internalType": "address payable[]",
          "name": "to",
          "type": "address[]"
        },
        {
          "internalType": "uint256[]",
          "name": "amount",
          "type": "uint256[]"
        }
      ],
      "name": "send",
      "outputs": [],
      "stateMutability": "payable",
      "type": "function"
    }
  ],
  "bytecode": "0x608060405234801561001057600080fd5b506040516107bc3803806107bc833981810160405281019061003291906100db565b806000806101000a81548173ffffffffffffffffffffffffffffffffffffffff021916908373ffffffffffffffffffffffffffffffffffffffff16021790555050610108565b600080fd5b600073ffffffffffffffffffffffffffffffffffffffff82169050919050565b60006100a88261007d565b9050919050565b6100b88161009d565b81146100c357600080fd5b50565b6000815190506100d5816100af565b92915050565b6000602082840312156100f1576100f0610078565b5b60006100ff848285016100c6565b91505092915050565b6106a5806101176000396000f3fe6080604052600436106100295760003560e01c80638da5cb5b1461002e578063a645ff5f14610059575b600080fd5b34801561003a57600080fd5b50610043610075565b6040516100509190610215565b60405180910390f35b610073600480360381019061006e91906104d4565b610099565b005b60008054906101000a900473ffffffffffffffffffffffffffffffffffffffff1681565b60008054906101000a900473ffffffffffffffffffffffffffffffffffffffff1673ffffffffffffffffffffffffffffffffffffffff163373ffffffffffffffffffffffffffffffffffffffff16146100f157600080fd5b8051825114610135576040517f08c379a000000000000000000000000000000000000000000000000000000000815260040161012c906105a9565b60405180910390fd5b60005b82518110156101cf57828181518110610154576101536105c9565b5b602002602001015173ffffffffffffffffffffffffffffffffffffffff166108fc838381518110610188576101876105c9565b5b60200260200101519081150290604051600060405180830381858888f193505050501580156101bb573d6000803e3d6000fd5b5080806101c790610627565b915050610138565b505050565b600073ffffffffffffffffffffffffffffffffffffffff82169050919050565b60006101ff826101d4565b9050919050565b61020f816101f4565b82525050565b600060208201905061022a6000830184610206565b92915050565b6000604051905090565b600080fd5b600080fd5b600080fd5b6000601f19601f8301169050919050565b7f4e487b7100000000000000000000000000000000000000000000000000000000600052604160045260246000fd5b61029282610249565b810181811067ffffffffffffffff821117156102b1576102b061025a565b5b80604052505050565b60006102c4610230565b90506102d08282610289565b919050565b600067ffffffffffffffff8211156102f0576102ef61025a565b5b602082029050602081019050919050565b600080fd5b6000610311826101d4565b9050919050565b61032181610306565b811461032c57600080fd5b50565b60008135905061033e81610318565b92915050565b6000610357610352846102d5565b6102ba565b9050808382526020820190506020840283018581111561037a57610379610301565b5b835b818110156103a3578061038f888261032f565b84526020840193505060208101905061037c565b5050509392505050565b600082601f8301126103c2576103c1610244565b5b81356103d2848260208601610344565b91505092915050565b600067ffffffffffffffff8211156103f6576103f561025a565b5b602082029050602081019050919050565b6000819050919050565b61041a81610407565b811461042557600080fd5b50565b60008135905061043781610411565b92915050565b600061045061044b846103db565b6102ba565b9050808382526020820190506020840283018581111561047357610472610301565b5b835b8181101561049c57806104888882610428565b845260208401935050602081019050610475565b5050509392505050565b600082601f8301126104bb576104ba610244565b5b81356104cb84826020860161043d565b91505092915050565b600080604083850312156104eb576104ea61023a565b5b600083013567ffffffffffffffff8111156105095761050861023f565b5b610515858286016103ad565b925050602083013567ffffffffffffffff8111156105365761053561023f565b5b610542858286016104a6565b9150509250929050565b600082825260208201905092915050565b7f426f7468206c656e67687473206d75737420626520657175616c000000000000600082015250565b6000610593601a8361054c565b915061059e8261055d565b602082019050919050565b600060208201905081810360008301526105c281610586565b9050919050565b7f4e487b7100000000000000000000000000000000000000000000000000000000600052603260045260246000fd5b7f4e487b7100000000000000000000000000000000000000000000000000000000600052601160045260246000fd5b600061063282610407565b91507fffffffffffffffffffffffffffffffffffffffffffffffffffffffffffffffff8203610664576106636105f8565b5b60018201905091905056fea2646970667358221220869bd24c1112837bfc752523cf01791cb4ea7b0e2f887196739710b3f089b3bc64736f6c63430008110033",
  "immutableReferences": {},
  "source": "// SPDX-License-Identifier: GPL-3.0\n\npragma solidity >=0.7.0 <0.9.0;\n\ncontract SmartContract8{\n\n    address public owner;\n    constructor(address _owner){\n        owner = _owner;\n    }\n\n    function send(address payable[] memory to, uint256[] memory amount) public payable ownerOnly{\n        require(to.length == amount.length,'Both lenghts must be equal');\n \n        for(uint256 i = 0; i< to.length; i++){\n           to[i].transfer(amount[i]);\n        }\n    }\n    modifier ownerOnly(){\n        require(msg.sender == owner);\n        _;\n    }\n}",
  "sourcePath": "/Users/adityaraj/Desktop/Testing of SC/contracts/SmartContract8.sol",
  "compiler": {
    "name": "solc",
    "version": "0.8.17+commit.8df45f5f.Emscripten.clang"
  },
  "schemaVersion": "3.4.11",
  "updatedAt": "2023-02-19T14:05:52.432Z",
  "devdoc": {
    "kind": "dev",
    "methods": {},
    "version": 1
  },
  "userdoc": {
    "kind": "user",
    "methods": {},
    "version": 1
  }
}