{
  "contractName": "SmartContract5",
  "abi": [
    {
      "inputs": [
        {
          "internalType": "uint256",
          "name": "a",
          "type": "uint256"
        },
        {
          "internalType": "uint256",
          "name": "b",
          "type": "uint256"
        }
      ],
      "name": "check",
      "outputs": [
        {
          "internalType": "uint256",
          "name": "",
          "type": "uint256"
        }
      ],
      "stateMutability": "pure",
      "type": "function"
    }
  ],
  "bytecode": "0x608060405234801561001057600080fd5b5061020b806100206000396000f3fe608060405234801561001057600080fd5b506004361061002b5760003560e01c80638fefd8ea14610030575b600080fd5b61004a600480360381019061004591906100ee565b610060565b604051610057919061013d565b60405180910390f35b60008183116100a4576040517f08c379a000000000000000000000000000000000000000000000000000000000815260040161009b906101b5565b60405180910390fd5b60008390508091505092915050565b600080fd5b6000819050919050565b6100cb816100b8565b81146100d657600080fd5b50565b6000813590506100e8816100c2565b92915050565b60008060408385031215610105576101046100b3565b5b6000610113858286016100d9565b9250506020610124858286016100d9565b9150509250929050565b610137816100b8565b82525050565b6000602082019050610152600083018461012e565b92915050565b600082825260208201905092915050565b7f612073686f756c642062652067726561746572207468616e2062000000000000600082015250565b600061019f601a83610158565b91506101aa82610169565b602082019050919050565b600060208201905081810360008301526101ce81610192565b905091905056fea26469706673582212208d60a347da5005b0aa38b8ea4b887a105445b57b7c9f303254f11d7a2db160c864736f6c63430008110033",
  "immutableReferences": {},
  "source": "// SPDX-License-Identifier: GPL-3.0\n\npragma solidity >=0.7.0 <0.9.0;\n\ncontract SmartContract5{\n\n    function check(uint256 a, uint256 b) public pure returns(uint256){\n        require(a>b,'a should be greater than b');\n        uint256 c;\n        c=a;\n        return c;\n    }\n}",
  "sourcePath": "/Users/adityaraj/Desktop/Testing of SC/contracts/SmartContract5.sol",
  "compiler": {
    "name": "solc",
    "version": "0.8.17+commit.8df45f5f.Emscripten.clang"
  },
  "schemaVersion": "3.4.11",
  "updatedAt": "2023-02-19T14:05:52.429Z",
  "devdoc": {
    "kind": "dev",
    "methods": {},
    "version": 1
  },
  "userdoc": {
    "kind": "user",
    "methods": {},
    "version": 1
  }
}