{
  "contractName": "SmartContract7",
  "abi": [
    {
      "inputs": [
        {
          "internalType": "address payable",
          "name": "_owner",
          "type": "address"
        }
      ],
      "stateMutability": "nonpayable",
      "type": "constructor"
    },
    {
      "inputs": [],
      "name": "owner",
      "outputs": [
        {
          "internalType": "address payable",
          "name": "",
          "type": "address"
        }
      ],
      "stateMutability": "view",
      "type": "function"
    },
    {
      "inputs": [],
      "name": "deposite",
      "outputs": [],
      "stateMutability": "payable",
      "type": "function"
    },
    {
      "inputs": [],
      "name": "balance",
      "outputs": [
        {
          "internalType": "uint256",
          "name": "",
          "type": "uint256"
        }
      ],
      "stateMutability": "view",
      "type": "function"
    },
    {
      "inputs": [
        {
          "internalType": "address payable",
          "name": "to",
          "type": "address"
        },
        {
          "internalType": "uint256",
          "name": "amount",
          "type": "uint256"
        }
      ],
      "name": "send",
      "outputs": [],
      "stateMutability": "nonpayable",
      "type": "function"
    }
  ],
  "bytecode": "0x608060405234801561001057600080fd5b506040516104cb3803806104cb833981810160405281019061003291906100db565b806000806101000a81548173ffffffffffffffffffffffffffffffffffffffff021916908373ffffffffffffffffffffffffffffffffffffffff16021790555050610108565b600080fd5b600073ffffffffffffffffffffffffffffffffffffffff82169050919050565b60006100a88261007d565b9050919050565b6100b88161009d565b81146100c357600080fd5b50565b6000815190506100d5816100af565b92915050565b6000602082840312156100f1576100f0610078565b5b60006100ff848285016100c6565b91505092915050565b6103b4806101176000396000f3fe60806040526004361061003f5760003560e01c80638da5cb5b14610044578063a50ec3261461006f578063b69ef8a814610079578063d0679d34146100a4575b600080fd5b34801561005057600080fd5b506100596100cd565b6040516100669190610215565b60405180910390f35b6100776100f1565b005b34801561008557600080fd5b5061008e6100f3565b60405161009b9190610249565b60405180910390f35b3480156100b057600080fd5b506100cb60048036038101906100c691906102c1565b6100fb565b005b60008054906101000a900473ffffffffffffffffffffffffffffffffffffffff1681565b565b600047905090565b60008054906101000a900473ffffffffffffffffffffffffffffffffffffffff1673ffffffffffffffffffffffffffffffffffffffff163373ffffffffffffffffffffffffffffffffffffffff1614610189576040517f08c379a00000000000000000000000000000000000000000000000000000000081526004016101809061035e565b60405180910390fd5b8173ffffffffffffffffffffffffffffffffffffffff166108fc829081150290604051600060405180830381858888f193505050501580156101cf573d6000803e3d6000fd5b505050565b600073ffffffffffffffffffffffffffffffffffffffff82169050919050565b60006101ff826101d4565b9050919050565b61020f816101f4565b82525050565b600060208201905061022a6000830184610206565b92915050565b6000819050919050565b61024381610230565b82525050565b600060208201905061025e600083018461023a565b92915050565b600080fd5b610272816101f4565b811461027d57600080fd5b50565b60008135905061028f81610269565b92915050565b61029e81610230565b81146102a957600080fd5b50565b6000813590506102bb81610295565b92915050565b600080604083850312156102d8576102d7610264565b5b60006102e685828601610280565b92505060206102f7858286016102ac565b9150509250929050565b600082825260208201905092915050565b7f4f6e6c79206f776e657220697320616c6c6f7765640000000000000000000000600082015250565b6000610348601583610301565b915061035382610312565b602082019050919050565b600060208201905081810360008301526103778161033b565b905091905056fea264697066735822122074e703c652c5375df76c409944f1a05af34d35de467d4cdd2aaf74bf0d374ab664736f6c63430008110033",
  "immutableReferences": {},
  "source": "// SPDX-License-Identifier: GPL-3.0\n\npragma solidity >=0.7.0 <0.9.0;\n\ncontract SmartContract7{\n\n    address payable public owner;\n\n    constructor(address payable _owner){\n        owner = _owner;\n    }\n    function deposite() public payable {\n\n    }\n    function balance() public view returns(uint256){\n        return address(this).balance;\n    }\n    function send(address payable to, uint256 amount) public{\n        require(msg.sender == owner,'Only owner is allowed');\n        to.transfer(amount);\n    }\n}",
  "sourcePath": "/Users/adityaraj/Desktop/Testing of SC/contracts/SmartContract7.sol",
  "compiler": {
    "name": "solc",
    "version": "0.8.17+commit.8df45f5f.Emscripten.clang"
  },
  "schemaVersion": "3.4.11",
  "updatedAt": "2023-02-19T14:05:52.431Z",
  "devdoc": {
    "kind": "dev",
    "methods": {},
    "version": 1
  },
  "userdoc": {
    "kind": "user",
    "methods": {},
    "version": 1
  }
}